:100000000C94B8050C94E0050C94E0050C94E00504
:100010000C94E0050C94E0050C94E0050C94E005CC
:100020000C94E0050C94E0050C94E0050C94E005BC
:100030000C94E0050C94E0050C94E0050C94E005AC
:100040000C941E0B0C94E0050C94180A0C94F20905
:100050000C94E0050C94E0050C94E0050C94E0058C
:100060000C94E0050C94E00500407A10F35A00A0CF
:10007000724E18090010A5D4E80000E87648170071
:1000800000E40B54020000CA9A3B000000E1F505B1
:10009000000080969800000040420F000000A086FB
:1000A00001000000102700000000E803000000002D
:1000B0006400000000000A000000000001000000D1
:1000C00000002C76D888DC674F0823DFC1DFAE59EB
:1000D000E1B1B796E5E3E453C63AE651997696E87E
:1000E000E6C28426EB898C9B62ED407C6FFCEFBC02
:1000F0009C9F40F2BAA56FA5F490055A2AF75C932D
:100100006B6CF9676DC11BFCE0E40D47FEF520E662
:10011000B500D0ED902E0300943577050080841E45
:10012000080000204E0A000000C80C333333330FA0
:10013000986E12831141EF8D2114893BE65516CF3D
:10014000FEE6DB18D1844B381BF77C1D901DA4BB49
:10015000E424203284725E228100C9F124ECA1E5FE
:100160003D27FFE0FFD1AFFF32FFD0FFFEFFE0FFF2
:10017000D1AEFFD0FFFEFFE0FFD11000FFFEFFD0A9
:10018000FFE0FFC1FFD1AED580A83FD300408D1462
:100190002000A1C8DA1281CFD9F1DB402EA4A6AF8E
:1001A000FFD0FFFE00000000240027002A0000000E
:1001B0000000230026002900005EBCE2613FDD83D1
:1001C000C29C7E20A3FD1F419DC3217FFCA2401E37
:1001D0005F01E3BD3E6082DC237D9FC1421CFEA027
:1001E000E1BF5D0380DE3C62BEE0025CDF81633D17
:1001F0007C22C09E1D43A1FF4618FAA427799BC507
:1002000084DA3866E5BB5907DB856739BAE40658F6
:100210001947A5FB7826C49A653BD987045AB8E6E6
:10022000A7F91B45C6987A24F8A6441A99C7257BD6
:100230003A6486D85B05E7B98CD2306EEDB3510FC6
:100240004E10F2AC2F7193CD114FADF3702ECC92B6
:10025000D38D6F31B2EC0E50AFF1134DCE90722CA6
:100260006D33D18F0C52B0EE326C8ED0530DEFB196
:10027000F0AE4C1291CF2D73CA947628ABF5174986
:100280000856B4EA6937D58B5709EBB536688AD476
:1002900095CB2977F4AA4816E9B7550B88D6346A66
:1002A0002B7597C94A14F6A8742AC896154BA9F756
:1002B000B6E80A54D7896B3501060D00FE090166C0
:1002C00002D620FFFE0BFE0AFE0D00602219698097
:1002D0008080808080800080183363A0A0A00357B6
:1002E000675050F850F850500259692078A0A0701B
:1002F0002828F02002596948A85010204050A890A2
:1003000002586840A0A040A098906828136380809D
:1003100080113B6B204040808080808040402011D5
:100320003B6B8040402020202020404080065565C7
:1003300020A870A8200455652020F82020113363E0
:10034000604080065161F811336340E04002596912
:100350000808101020404080800259692050888889
:1003600088888850200259692060A0202020202001
:10037000F80259697088880810204080F80259698D
:10038000F808102070080888700259691010305061
:100390005090F81010025969F88080B0C808088899
:1003A0007002596970888080F08888887002596965
:1003B000F808101020204040400259697088888851
:1003C00070888888700259697088888878080888D9
:1003D0007011386840E040000040E040113868404B
:1003E000E0400000604080025969081020408040D1
:1003F000201008045464F80000F802596980402075
:100400001008102040800259697088880810202048
:10041000002002596970888898A8A8B0807802598D
:10042000692050888888F8888888025969F0484887
:100430004870484848F00259697088808080808000
:100440008870025969F048484848484848F00259BD
:1004500069F8808080F0808080F8025969F8808097
:1004600080F08080808002596970888080809888C0
:10047000887002596988888888F88888888812393D
:1004800069E040404040404040E002596938101067
:10049000101010109060025969888890A0C0A09038
:1004A00088880259698080808080808080F8025925
:1004B000698888D8A8A88888888802596988C8C89F
:1004C000A8A8989888880259697088888888888838
:1004D0008870025969F0888888F080808080015A8D
:1004E0006A70888888888888A87008025969F088A6
:1004F0008888F0A090888802596970888080700888
:10050000088870025969F82020202020202020022D
:100510005969888888888888888870025969888895
:100520008888505050202002596988888888A8A857
:10053000A8A85002596988885050205050888802D5
:100540005969888850502020202020025969F808D5
:10055000101020404080F8113B6BE080808080804C
:1005600080808080E002596980804040201010081F
:1005700008113B6BE0202020202020202020E008D4
:100580005363205088015161F82A2262804002564C
:1005900066700878889868025969808080F0888839
:1005A0008888F002566670888080887002596908D1
:1005B00008087888888888780256667088F8808865
:1005C0007002596930484040F0404040400058684F
:1005D0007088888878088870025969808080B0C8DF
:1005E000888888881238684000C040404040E00059
:1005F0004A6A100030101010109090600259698003
:10060000808090A0C0A09088123969C040404040CE
:10061000404040E0025666D0A8A8A8A888025666C6
:10062000B0C8888888880256667088888888700074
:100630005868F0888888F0808080005868788888BA
:100640008878080808025666B0C880808080025604
:10065000667088601088700258684040F0404040E2
:100660004830025666888888889868025666888866
:10067000885050200256668888A8A8A8500256665E
:100680008850202050880058688888889868088892
:1006900070025666F810204080F8015B6B1820202D
:1006A0002020C0202020201822196980808080808E
:1006B00080808080015B6BC02020202018202020BB
:1006C00020C008536348A890FFFFFFFFFFFFFFFF14
:1006D000FFFFFFFFFFFFFFFFFFFFFFFFFFFFFFFF2A
:1006E000FFFFFFFFFFFFFFFFFF0D00602219698082
:1006F00000808080808080800358682070A8A0A03F
:10070000A8702002596930484040E0404048B0039A
:10071000566688705050708802596988885050F821
:1007200020F82020221969808080800080808080CD
:10073000124A6A609080609090601090601A3262F5
:10074000A0A00359697088A8D8C8D8A88870045791
:1007500067700878887800F80356662850A0A05083
:1007600028045363F80808163161E003596970885A
:10077000E8D8D8E8D888700A5161F81744646090C6
:1007800090600357672020F8202000F80735654067
:10079000A02040E007356540A04020C02A226240EA
:1007A000800058688888888898E88080025969782D
:1007B000E8E8E8E868282828262161C0202262406D
:1007C0008007356540C04040E004576770888888DE
:1007D0007000F8035666A050282850A0025A6A40BC
:1007E000C04040E00818283808025A6A40C040401B
:1007F000E01028081038025A6A40A04020A048188B
:10080000283808025969200020204080888870021A
:100810005A6A40200020508888F88888025A6A1056
:10082000200020508888F88888025A6A30480020C2
:10083000508888F88888025A6A2850002050888892
:10084000F88888025A6A50500020508888F88888B2
:10085000025A6A20502020508888F88888025969F6
:1008600058A0A0A0B0E0A0A0B8005B6B708880800A
:1008700080808088702040025A6A402000F8808082
:10088000F08080F8025A6A102000F88080F08080A2
:10089000F8025A6A304800F88080F08080F8025AE6
:1008A0006A505000F88080F08080F8123A6A8040E8
:1008B00000E04040404040E0123A6A204000E04002
:1008C00040404040E0124A6A609000E040404040B2
:1008D00040E0123A6AA0A000E04040404040E00200
:1008E0005969F0484848E8484848F0025A6A285090
:1008F000008888C8A8988888025A6A4020007088B2
:100900008888888870025A6A1020007088888888D1
:100910008870025A6A304800708888888888700217
:100920005A6A28500070888888888870025A6A50ED
:1009300050007088888888887003556588502050DA
:1009400088015B6B08709898A8A8A8C8C870800236
:100950005A6A40200088888888888870025A6A10FD
:10096000200088888888888870025A6A3048008801
:10097000888888888870025A6A50500088888888D9
:10098000888870025A6A1020008888502020202011
:1009900002596980F0888888F080808002596960F7
:1009A0009090A0A0908888B00259694020007008FB
:1009B00078889868025969102000700878889868CB
:1009C0000259693048007008788898680259692887
:1009D0005000700878889868025969505000700873
:1009E00078889868025A6A30483000700878889889
:1009F00068025666702870A0A850005868708880F9
:100A000080887020400259694020007088F88088F2
:100A1000700259691020007088F880887002596946
:100A20003048007088F88088700259695050007012
:100A300088F8808870123969804000C0404040408A
:100A4000E0123969204000C040404040E01249694E
:100A5000609000C040404040E0123969A0A000C052
:100A600040404040E0025A6A5020601070888888F8
:100A70008870025969285000B0C88888888802594F
:100A800069402000708888888870025969102000A9
:100A90007088888888700259693048007088888812
:100AA00088700259692850007088888888700259B7
:100AB000695050007088888888700357672020002C
:100AC000F8002020015868087098A8A8C870800213
:100AD00059694020008888888898680259691020E0
:100AE0000088888888986802596930480088888812
:100AF00088986802596950500088888888986800EA
:100B00005B6B1020008888889868088870005A6A93
:100B10008080B0C88888C8B08080005B6B5050006F
:100B200088888898680888700000000025002800E0
:100B30002B0004040404040404040202020202025E
:100B40000303030303030102040810204080010291
:100B50000408102001020408102000000008000210
:100B600001000003040700000000000000001B1A41
:100B700011241FBECFEFD8E0DEBFCDBF11E0A0E053
:100B8000B1E0E2E7F3E402C005900D92A43EB107A4
:100B9000D9F724E0A4EEB1E001C01D92A136B2075E
:100BA000E1F715E0C8EBD5E004C02197FE010E94F3
:100BB000961FC73BD107C9F70E94F8100C94B721C4
:100BC0000C940000CF92DF92EF92FF920F931F934D
:100BD000CF93DF936C017A018B01C0E0D0E0CE159A
:100BE000DF0589F0D8016D918D01D601ED91FC9161
:100BF0000190F081E02DC6010995892B11F47E0149
:100C000002C02196ECCFC701DF91CF911F910F91C8
:100C1000FF90EF90DF90CF900895FC01538D448DAD
:100C2000252F30E0842F90E0821B930B541710F097
:100C3000CF96089501970895FC01918D828D9817A4
:100C400061F0828DDF01A80FB11D5D968C91928DB0
:100C50009F5F9F73928F90E008958FEF9FEF0895AD
:100C6000FC01918D828D981731F0828DE80FF11D76
:100C7000858D90E008958FEF9FEF0895FC01918D91
:100C8000228D892F90E0805C9F4F821B91098F738A
:100C9000992708958FEC92E00E943E0621E0892B6F
:100CA00009F420E0822F0895FC01848DDF01A80F54
:100CB000B11DA35ABF4F2C91848D90E001968F7384
:100CC0009927848FA689B7892C93A089B1898C91A3
:100CD00080648C93938D848D981306C00288F38969
:100CE000E02D80818F7D80830895EF92FF920F9396
:100CF0001F93CF93DF93EC0181E0888F9B8D8C8DC8
:100D0000981305C0E889F989808185FD24C0F62EF5
:100D10000B8D10E00F5F1F4F0F731127E02E8C8D8E
:100D2000E8120CC00FB607FCFACFE889F989808178
:100D300085FFF5CFCE010E945406F1CF8B8DFE01C9
:100D4000E80FF11DE35AFF4FF0820B8FEA89FB8910
:100D50008081806207C0EE89FF896083E889F98914
:100D600080818064808381E090E0DF91CF911F914A
:100D70000F91FF90EF900895CF93DF93EC01888D52
:100D80008823C9F0EA89FB89808185FD05C0A8898F
:100D9000B9898C9186FD0FC00FB607FCF5CF808115
:100DA00085FFF2CFA889B9898C9185FFEDCFCE015F
:100DB0000E945406E7CFDF91CF91089580E090E044
:100DC000892B29F00E944A0681110C940000089595
:100DD0003FB7F8948091EB019091EC01A091ED0167
:100DE000B091EE0126B5A89B05C02F3F19F00196E2
:100DF000A11DB11D3FBFBA2FA92F982F8827820FA1
:100E0000911DA11DB11DBC01CD0142E0660F771FF0
:100E1000881F991F4A95D1F708950895DC01169609
:100E2000ED91FC91179712968C91481B477081E0C9
:100E300090E001C0880F4A95EAF7E60FF11D308176
:100E4000222311F0832B02C0809583238083089591
:100E5000FB014181DC0112962C911297421768F038
:100E600013962C911397241740F0608115962C91BE
:100E7000621718F424810C940E070895FC018081F8
:100E80009281980F92832181921760F494819F5FE1
:100E900094839381890F821710F08FEF820F8383E1
:100EA00081E0089580E00895FC01128280818150E4
:100EB00083831482089580E008950B96FC01849149
:100EC00008950A96FC0184910895FC018491089587
:100ED0000E946507882321F0823011F083E0089595
:100EE00086E00895FC01E60FF11D849190E0982FB3
:100EF00088273196E4918E0F911D089568E00C9437
:100F0000720766E00C9472072EE93FE0009729F023
:100F1000F9013197F1F70197F9CF08951092E501A2
:100F20001092E40108958093CE021092B90084FFDC
:100F300002C08CE001C088E48093B8000C948E0756
:100F4000DB011496ED91FC91159720E030E065E00F
:100F50000994CF92DF92EF92FF920F931F93CF935A
:100F6000DF938C017B016A0180E0F601C49181115D
:100F70000BC0CF3F09F457C04C2FB701C8010E94E6
:100F8000A00781114EC054C0CF3F11F44FEFF5CFF1
:100F9000CE3F09F44FC0C03F08F043C0C03E58F0F8
:100FA0004C2F4F70D7011496ED91FC91159720E0CE
:100FB00030E062E00CC0C03D68F04C2F4F70D701AC
:100FC0001496ED91FC91159720E030E063E0C801A4
:100FD000099527C0C03CF8F0D7011496ED91FC911B
:100FE000159720E030E040E064E0C8010995C29523
:100FF000C07FCE5FD0E0CE010E948407D701149657
:10100000ED91FC91159720E030E041E064E0C801EB
:101010000995CE0104C0C7FD04C08C2F90E00E944A
:10102000840780E001C081E0BFEFCB1ADB0A9DCFCF
:1010300080E001C081E0DF91CF911F910F91FF907F
:10104000EF90DF90CF9008958F929F92AF92BF92D2
:10105000CF92DF92FF920F931F93CF93DF9300D035
:10106000CDB7DEB76C018B01F42E490120E14217A8
:1010700009F456C02417A0F03AE043135BC0DB012B
:101080001496ED91FC91159720E030E042E061E08C
:1010900009954EE751E0B801C6010E94A9074AC070
:1010A00081E1481709F43FC0A5E14A1343C0FB01A1
:1010B000A280B38046E751E0C6010E94A907D5018E
:1010C00014964C91406BB801C6010E94A007D8014C
:1010D0001496ED91FC91159720E030E041E062E03C
:1010E000C6010995F50126813781D8011496ED9145
:1010F000FC911597D50115964C9166E0C6010995AE
:10110000811102C080E0D3C0D8011496ED91FC910A
:10111000159720E030E040E063E0C60109950AC081
:101120004DE651E002C042E651E0B801C6010E941E
:10113000A907BCC0F80102811381F2E3FF1609F48C
:1011400079C0FF15B8F025E1F21609F480C037E147
:10115000F31609F492C084E1F812A8C0D8011696DB
:10116000ED91FC91179715968C919F01280F311DD9
:10117000C90165C0A6E4FA1609F48FC0B7E4FB16EE
:1011800009F48FC0EBE3FE1291C0D40111968C914B
:10119000119713969C91913029F0933031F4482F98
:1011A000885004C048E0480F01C0482F21E0F801F2
:1011B0003381381708F420E031E0D80112965C91B1
:1011C000451708F430E051E0481708F050E0822F4E
:1011D000852B382319F4252309F468C0F401F28023
:1011E000913051F030F0923049F0933051F42FEFBC
:1011F00009C020E031E007C021E004C020E03FEF5B
:1012000002C020E030E0F7FE08C0B401C8012A8324
:1012100039830E94280739812A81D4018C91830F58
:101220008C9311968C911197820F11968C93FF0CD1
:1012300051F73CC0B401C8010E94280737C0119281
:10124000E817F907E1F7C8010E9454072FC0C80149
:101250000E943E07882309F455CFD8011696ED91D8
:10126000FC91179715968C919F01280F311DC9018C
:101270001192E817F907E1F719C0D4011C92F8019F
:10128000828111968C9311978581815012968C934F
:101290001297838113968C9309C0D80115968C916F
:1012A00003C0D80111968C91F401808381E00F90E6
:1012B0000F90DF91CF911F910F91FF90DF90CF9012
:1012C000BF90AF909F908F900895089580E090E038
:1012D00008950E9493210F931F93CF93DF93EC0106
:1012E00088819981009729F02A813B812617370749
:1012F00088F48B016F5F7F4F0E94C920009761F0D7
:10130000998388831B830A832C813D81232B11F4CD
:10131000FC01108281E001C080E0DF91CF911F913C
:101320000F910895EF92FF920F931F93CF93DF9346
:101330006115710511F480E023C0FB0101900020CC
:10134000E9F73197E61BF70BDC0114960D911C9120
:1013500015973097A1F07B01EC010E0F1F1FB8010C
:101360000E946B09882339F3288139818C819D8102
:10137000B701820F931F0E94A1211D830C8381E07E
:10138000DF91CF911F910F91FF90EF900895EF9211
:10139000FF920F931F93CF93DF93EC017B018A01A0
:1013A000BA010E946B092881398181110DC0211574
:1013B000310519F0C9010E943120198218821D825D
:1013C0001C821B821A8206C01D830C83B701C901CF
:1013D0000E94A121CE01DF91CF911F910F91FF902B
:1013E000EF9008951F920F920FB60F9211242F9332
:1013F0003F934F935F936F937F938F939F93AF939D
:10140000BF93EF93FF938FEC92E00E945406FF91FD
:10141000EF91BF91AF919F918F917F916F915F916C
:101420004F913F912F910F900FBE0F901F901895E5
:101430001F920F920FB60F9211242F938F939F93A9
:10144000EF93FF93E091DF02F091E0028081E09161
:10145000E502F091E60282FD12C090818091E802DF
:101460008F5F8F732091E902821751F0E091E802BB
:10147000F0E0E153FD4F958F8093E80201C0808139
:10148000FF91EF919F918F912F910F900FBE0F9031
:101490001F901895833081F028F4813099F08230C4
:1014A000A1F008958730A9F08830B9F08430D1F4E4
:1014B000809180008F7D03C0809180008F77809322
:1014C0008000089584B58F7702C084B58F7D84BD78
:1014D00008958091B0008F7703C08091B0008F7D18
:1014E0008093B0000895CF93DF93282F30E0F90167
:1014F000E65AF44F8491F901EA5BF44FD491F90173
:10150000EE5CF44FC491CC2391F081110E944A0A01
:10151000EC2FF0E0EE0FFF1FE255FE4FA591B491C6
:10152000EC91ED2381E090E021F480E002C080E0C6
:1015300090E0DF91CF910895CF93DF9390E0FC018D
:10154000EA5BF44F2491FC01EE5CF44F8491882314
:1015500061F190E0880F991FFC01EC55FE4FC59199
:10156000D491FC01E85DF44FA591B491611109C0DB
:101570009FB7F8948881209582238883EC912E234D
:101580000BC0623061F49FB7F8943881822F809548
:1015900083238883EC912E2B2C939FBF06C08FB79B
:1015A000F894E8812E2B28838FBFDF91CF91089587
:1015B0008F929F92AF92BF92CF92DF92EF92FF9263
:1015C0006B017C010E94E8064B015C01C114D1044F
:1015D000E104F104F1F00E94E806DC01CB01881976
:1015E0009909AA09BB09883E9340A105B10570F38A
:1015F00021E0C21AD108E108F10888EE880E83E0E4
:10160000981EA11CB11CC114D104E104F10419F706
:10161000DDCFFF90EF90DF90CF90BF90AF909F9085
:101620008F9008952FB7F8946091E7017091E801C9
:101630008091E9019091EA012FBF08951F920F92C6
:101640000FB60F9211242F933F938F939F93AF93D5
:10165000BF938091E7019091E801A091E901B091D9
:10166000EA013091E60123E0230F2D3720F40196A3
:10167000A11DB11D05C026E8230F0296A11DB11DB5
:101680002093E6018093E7019093E801A093E9019C
:10169000B093EA018091EB019091EC01A091ED01F2
:1016A000B091EE010196A11DB11D8093EB019093C5
:1016B000EC01A093ED01B093EE01BF91AF919F912A
:1016C0008F913F912F910F900FBE0F901F90189503
:1016D000FC0190810180F281E02DF8948181892BB9
:1016E00081832281892F809528232283A7E0B0E07F
:1016F0001197F1F7218182238183A3E2B0E0119752
:10170000F1F780817894EFECF0E03197F1F79823CE
:1017100081E009F480E00895FC0190810180F2816C
:10172000E02D892F809560FF12C0F89422818223DA
:1017300082838181892B8183A3E2B0E01197F1F745
:101740008281982B9283789487ED90E011C0F89471
:101750002281822382838181892B8183AFEFB0E054
:101760001197F1F78281982B928378948FE090E023
:101770000197F1F70895CF92DF92EF92FF920F93C6
:101780001F93CF93DF931F92CDB7DEB76C01E62E88
:1017900008E010E0FF24F39461E08F2D8E2109F41E
:1017A00060E0C60149830E948C0BFF0C01501109B7
:1017B00049810115110581F7411115C0F894D60131
:1017C0001196ED91FC91129791818C9180958923CE
:1017D00081831196ED91FC91129792818C91809565
:1017E0008923828378940F90DF91CF911F910F917D
:1017F000FF90EF90DF90CF900895CF92DF92EF921D
:10180000FF920F931F93CF93DF931F92CDB7DEB755
:101810008C01F62E40E065E579830E94BB0BCF2C4E
:101820007981D72E760188E0E80EF11CF6016191EE
:101830006F0140E0C8010E94BB0BCE14DF04B1F77A
:101840000F90DF91CF911F910F91FF90EF90DF905C
:10185000CF900895FC0190810180F281E02DF894F1
:101860008181292F20958223818378948DE743E01D
:1018700050E0815021F1DA011197F1F730813923DD
:10188000C1F3F8948281822382838181892B8183B1
:101890007894ABE7B7E01197F1F7F89481812823AA
:1018A0002183A3E1B1E01197F1F78081982381E0D2
:1018B00009F080E07894E3E6F6E03197F1F70895D7
:1018C0000F931F93CF93DF93EC01162F60E0812FCE
:1018D0000E949C0A612F70E0FB01EA5BF44FE491E7
:1018E000E883FB01EE5CF44FE491F0E0EE0FFF1FA4
:1018F000E255FE4F859194919A8389831B861D86BC
:101900001C86FE013B968E010D5F1F4F1292E01761
:10191000F107E1F7DF91CF911F910F910895DB015E
:10192000ED91FC910994EF92FF920F931F93CF9347
:10193000DF931F92CDB7DEB78C01DC011296ED90DC
:10194000FC901397D196ED91FC91D29782E0099586
:1019500020E030E04AE0B701C8010E948F0CF82E69
:10196000D801D196ED91FC91D29783E00995D801E9
:10197000D196ED91FC91D29780E00995FF20A1F1DD
:10198000F801628173819E012F5F3F4F46E4C801D9
:101990000E948F0C8981D8018C9312966D917C9155
:1019A00013979E012F5F3F4F47E4C8010E948F0CA1
:1019B0008981F80181836281738120E030E048E40D
:1019C000C8010E948F0CD8011B968C931B9798011D
:1019D0002D5C3F4F12966D917C91139747E1C801A2
:1019E0000E948F0C81E001C080E00F90DF91CF91C9
:1019F0001F910F91FF90EF9008954F925F926F9219
:101A00007F928F929F92AF92BF92CF92DF92EF928E
:101A1000FF920F931F93CF93DF931F92CDB7DEB743
:101A20002C01E62EF42EC22EDC0114960D911C9191
:101A30001597C8010E946507D82EF201848195810F
:101A40000E946807982EF1E0DF1203C02FE0A22E5B
:101A500002C0AA24AA94D20114968D919C91159744
:101A60000E946107D82EF201848195810E945D0752
:101A7000B82ED20114968D919C9115970E947E07E5
:101A8000B0E6BC1538F4009729F0080F191F91E64D
:101A9000D92E11C0F201848195810E948107F0E462
:101AA000FC1538F4009729F0080F191F81E4D82E8F
:101AB00002C00F5E1F4FBC1480F4D20150961C92DE
:101AC000509753961C92539754961C925497519644
:101AD0001C92519752961C92A0C0BD1470F3892D90
:101AE00090E0F80124912F3F19F40F5F1F4F5AC067
:101AF000DC104FC0D20114968D919C9115970E94D5
:101B0000650798012F5F3F4FF801882311F082305D
:101B1000E1F48491D20153968C935397F901249167
:101B200054962C935497F8013396E4915096EC9385
:101B30005097F8013496E4915196EC935197F8013F
:101B40003596E4915296EC9320C08491982F9F7023
:101B50009250D20152969C93529782958F705196D3
:101B60008C935197F9012491822F8F7054968C9306
:101B7000549722952F7053962C935397F8013296D1
:101B8000E491E295EF705096EC930115110579F40C
:101B900044C0F8013296E491EA219C012E0F311DD8
:101BA000020F131FDB1409F488CFD3949ACFF201EC
:101BB000848195810E946807D20153963C91539786
:101BC00054962C91549751965C91519752969C91B2
:101BD0005297920FF91A9FEF920F9F0DD4964C9146
:101BE000D497D6966C916F1518F0941728F402C00C
:101BF000941780F09F1570F4E50E9FEF930F9E0DE4
:101C0000D201D3964C91D397D5965C915E1538F45A
:101C1000941738F4F20180893FC080E03DC09417EA
:101C200010F49E15B8F7080F111D395F732E7694C6
:101C3000769476946F2C620E5201FCE1AF0EB11CCB
:101C4000872C912CF61431F35E2D68018C2D801BAE
:101C50008715F0F4F6018491D20112966D917C9172
:101C600013975C965C935C975D96FC925D975F968C
:101C70001C925F975E968C9395014BE3C20159834A
:101C80000E948F0CBFEFCB1ADB0A5981585FDECF61
:101C9000080D191DF394D6CF0F90DF91CF911F91AE
:101CA0000F91FF90EF90DF90CF90BF90AF909F90FB
:101CB0008F907F906F905F904F900895CF92DF92BA
:101CC000EF92FF920F931F93CF93DF931F92CDB7A5
:101CD000DEB76C01DC01DC961C91DC97DB960C9185
:101CE0007C01B4E0EB0EF11CDC015996ED91FC9106
:101CF0005A97C70169830995482F410F2981602FA1
:101D0000C7010E94FD0CF60123AD082E000C990BB3
:101D1000820F911D83AF81E090E00F90DF91CF9112
:101D20001F910F91FF90EF90DF90CF9008959091C9
:101D3000E501911104C08093E5016093E4010895E9
:101D40001F93CF93DF9300D0CDB7DEB720ED37E000
:101D50003A8329839091BC00982399F429813A8190
:101D6000232B51F48091CE02182F127081FD09C0EF
:101D700081E00E94970E06C029813A8121503109E5
:101D8000E7CF11E0812F0F900F90DF91CF911F913E
:101D9000089584E98093BC0064E080E10C94A00E77
:101DA000CF938093BB0084E88093BC0063E080E81D
:101DB0000E94A00EC82F882389F08091CE02C82FE0
:101DC000C27081FD0AC08091B900887F883229F0F5
:101DD00063E082E00E94970E01C0C1E08C2FCF919A
:101DE0000895CF93DF93FC0123A5222379F0EC0122
:101DF0000E94C110811102C080E009C08EA1811132
:101E000080E40E94D00E8823B9F31BA681E0DF9105
:101E1000CF9108950F931F93CF93C42F89016330FF
:101E2000C1F050F4613081F0623009F048C0FC012B
:101E300046A321E023A743C0663011F1673079F152
:101E4000653009F03CC00EC0FC0186A50E949307D6
:101E500036C0FC0116A221E023A7411130C00E9428
:101E6000C90E2DC00E94F10E811104C00E94C90E3E
:101E700080E026C08C2F0E94D00E811120C0F6CFAA
:101E80000E94F10E882391F3CC23C9F0F8018191CF
:101E90008F010E94D00E882349F3C150F5CF0E94D4
:101EA000F10E882319F3CC2351F0F80184910E949C
:101EB000D00E882329F00F5F1F4FC150F4CF81E06F
:101EC000CF911F910F910895CF93DF9340913F02DF
:101ED00050E0EFEEF1E020E030E0241735078CF41D
:101EE000DC01BF01685F7F4FD191CD91DC1305C04C
:101EF000E617F707C9F7C90106C02F5F3F4FFB017F
:101F0000ECCF8FEF9FEFDF91CF9108950E94640F88
:101F100097FD0CC0880F991F880F991FFC01EF5F78
:101F2000FE4F6081718182819381089560E070E04D
:101F300080EB92E40895CF93DF93DC01EC0198E00D
:101F4000E0E0915039F08991E827F0E0E854FE4F45
:101F5000E491F7CF81E017969C91E91380E0DF913F
:101F6000CF910895CF92DF92FF920F931F93CF935B
:101F7000DF9300D0CDB7DEB7082FE091B803F09122
:101F8000B90383EA93E069837A830995080F69812D
:101F9000C62E7A81D72E10E0FF24F394F60121910A
:101FA0006F01222349F0402F6F2D83EA93E00E94B6
:101FB000FD0CF80E180FF2CF812F0F900F90DF91CC
:101FC000CF911F910F91FF90DF90CF9008950097D0
:101FD00069F0FC0101900020E9F73197AF01481B3F
:101FE000590BBC018FEC92E00C94E20580E090E08C
:101FF00008958F929F92AF92BF920F931F93CF93AA
:10200000DF93CDB7DEB7A1970FB6F894DEBF0FBE52
:10201000CDBF19A2423008F44AE08E010F5D1F4F78
:10202000842E912CA12CB12CA50194010E94CE1ECE
:10203000E62FB901CA0101501109EA3014F4E05D3C
:1020400001C0E95CD801EC93232B242B252B61F7ED
:10205000C8010E94E70FA1960FB6F894DEBF0FBE2D
:10206000CDBFDF91CF911F910F91BF90AF909F9007
:102070008F900895CF93DF930E94E70FEC018CEAD5
:1020800091E00E94E70F8C0F9D1FDF91CF91089583
:102090000F931F93CF93DF93FC01C481D5812097C9
:1020A00019F4FB01108210C0C531D10510F0C5E153
:1020B000D0E08B01FC0160817181AE01C8010E94FA
:1020C000A821C00FD11F1882DF91CF911F910F91CE
:1020D00008951F93CF93DF93E7E6FBE09491E3E548
:1020E000FBE0D491EFE3FBE0C491CC23D9F0182FAF
:1020F000992319F0892F0E944A0AEC2FF0E0EE0F85
:10210000FF1FE85DF44FA591B4918FB7F8941111BA
:1021100005C09C91ED2FE095E92302C0EC91ED2BD9
:10212000EC938FBFDF91CF911F910895809174033D
:102130008823E9F0809173038E3008F08E50877009
:10214000806480937C0080917A00806480937A0020
:1021500080917A0086FDFCCF2091780080917900F3
:1021600030E0382B41E0213931404CF407C08091F8
:1021700073030E94730A41E0892B09F440E0842F25
:102180000895CF9384EA8093BC0061E080E80E94C8
:10219000A00E882359F08091B900887F883041F0E3
:1021A000803131F061E082E00E94970EC0E01DC0F6
:1021B00088E78093BB0084E88093BC0062E080E8FD
:1021C0000E94A00E882391F38091CE02C82FC27086
:1021D00081FD0AC08091B900887F883129F062E0D2
:1021E00082E00E94970E01C0C1E08C2FCF9108952C
:1021F000CF93DF93CDB7DEB7C757D1090FB6F894A9
:10220000DEBF0FBECDBF789484B5826084BD84B537
:10221000816084BD85B5826085BD85B5816085BDE1
:1022200080916E00816080936E0010928100809199
:102230008100826080938100809181008160809321
:102240008100809180008160809380008091B10046
:1022500084608093B1008091B00081608093B00071
:1022600080917A00846080937A0080917A00826005
:1022700080937A0080917A00816080937A008091C7
:102280007A00806880937A001092C10061E08DE04E
:102290000E949C0A62E08AE00E949C0A8AE0809385
:1022A0007303109274030E949610109272030E949E
:1022B0009610882319F083E0809372030E94120B1A
:1022C00060936C0370936D0380936E0390936F0320
:1022D00088EE93E0909371038093700362E089E04D
:1022E0000E949C0A6AE070E080E090E00E94D80AB8
:1022F000E091DF02F091E00282E08083E091DB0276
:10230000F091DC021082E091DD02F091DE028FECB0
:1023100080831092E702E091E302F091E40286E00C
:102320008083E091E102F091E2028081806180830C
:10233000E091E102F091E202808188608083E09187
:10234000E102F091E202808180688083E091E10205
:10235000F091E20280818F7D808389E00E94730A80
:10236000892BD9F4FE01319680E5DF011D928A9513
:10237000E9F78F01E12CF12CF80161918F01C70180
:102380000E94891EFFEFEF1AFF0A20E5E216F10412
:1023900099F789E791E00E943A1095E7E92E93E0DA
:1023A000F92E20E8A22E23E0B22E32E8C32E33E02D
:1023B000D32E41E8642E43E0742E30E020E0812CDF
:1023C000912C032F122FBEE0B89DC001B99D900D36
:1023D0001124FC01EB58FC4F2F0196012A503109C2
:1023E000A3963FAF2EAFA397F6018081811188C0DD
:1023F000C7010E942A0C81110DC0302F212F00939C
:102400003F02D5011C92F6011082D3011C9287E095
:1024100090E0B6C040E060EFC7010E94BB0B2224F1
:10242000239440E050E033243394C701E7964FAF44
:10243000E797E8965FAFE8970E94680B682FC7019F
:10244000E6966FAFE6970E94680BE6966FADE6974B
:10245000E7964FADE797E8965FADE897613019F4DE
:102460008130C9F442C0242F30E068131DC0F5014B
:102470008081381638F4F201E20FF31F8381822144
:1024800051F402C0381639F060E0F8E0F31558F066
:10249000D3013C9208C0F201E40FF11D838182292F
:1024A000838361E009C0532DF201E20FF31F938192
:1024B000822D809589238383C701E7964FAFE797E5
:1024C000E8965FAFE8970E948C0B3394220CE79656
:1024D0004FADE797E8965FADE897211003C04F5FD7
:1024E00022242394483008F4A0CFB0E4B31540F47C
:1024F000F50150835111FAC6E1E0D601EC93F6C61E
:10250000D5011C92F6011082D3011C9220E0FE013D
:1025100031961F01DF0180E090E0F701E80FF91F1D
:1025200033813D93019688309105B9F7222309F450
:1025300064CFCE0101960E949B0F8823E1F09801A1
:1025400083E0220F331F8A95E1F780E090E0D1010C
:102550004D911D01FC01E20FF31FE151FE4F40833D
:1025600001968830910599F7F801E85BFD4F80826C
:102570000F5F1F4F39CF86E891E00E943A1034CFA9
:10258000F701E80FF91F1382009711F00197F8CFB8
:10259000FFEF8F1A9F0A4EE0E40EF11C5EE0A50EDD
:1025A000B11C8EE0C80ED11C9EE0690E711CA3E028
:1025B0008A16910409F005CF85EA91E00E94E70FA1
:1025C00060913F0270E080E090E04AE00E94F90FE5
:1025D0008CEA91E00E94E70F6AEF70E080E090E003
:1025E0000E94D80A1EE7E12E12E0F12E00E010E072
:1025F000C8010E94811ED7018D937D010F5F1F4F7F
:1026000000351105A9F7FE0131961F0188E0DF01B1
:102610001D928A95E9F78EE792E00E949B0F811147
:102620000FC080913F02882319F0EFEEF1E001C066
:10263000F10188E0AEE7B2E001900D928A95E1F7F2
:1026400086E892E00E949B0F81110FC080913F02AB
:10265000823018F0E7EFF1E001C0F10188E0A6E870
:10266000B2E001900D928A95E1F78EE892E00E9427
:102670009B0F81110FC080913F02833018F0EFEF64
:10268000F1E001C0F10188E0AEE8B2E001900D9206
:102690008A95E1F786E992E00E949B0F81110FC0B5
:1026A00080913F02843018F0E7E0F2E001C0F101D0
:1026B00088E0A6E9B2E001900D928A95E1F78EE9F3
:1026C00092E00E949B0F81110FC080913F028530E4
:1026D00018F0EFE0F2E001C0F10188E0AEE9B2E00D
:1026E00001900D928A95E1F786EA92E00E949B0F95
:1026F00081110FC080913F02863018F0E7E1F2E0CF
:1027000001C0F10188E0A6EAB2E001900D928A953D
:10271000E1F78EEA92E00E949B0F81110FC0809139
:102720003F02873018F0EFE1F2E001C0F10188E0EC
:10273000AEEAB2E001900D928A95E1F786EB92E065
:102740000E949B0F81110FC080913F02883018F0CA
:10275000E7E2F2E001C0F10188E0A6EBB2E001900F
:102760000D928A95E1F78EEB92E00E949B0F81110A
:102770000FC080913F02893018F0EFE2F2E001C013
:10278000F10188E0AEEBB2E001900D928A95E1F79D
:1027900086EC92E00E949B0F81110FC080913F0256
:1027A0008A3018F0E7E3F2E001C0F10188E0A6EC1E
:1027B000B2E001900D928A95E1F74E01B1E58B0EE2
:1027C000911CF4013996E196FFAFEEAFE197F8E086
:1027D000F80DE296FFAFE2970E94120BAB01BC012D
:1027E000662777278091400290914102A091420292
:1027F000B0914302481759076A077B07A8F0409336
:102800004002509341026093420270934302BFEE34
:10281000AB2EB1E0BB2E22E532E0A3963FAF2EAF48
:10282000A397E12CF12C39C010927A0210927B020E
:1028300010927C0210927D02109244021092450286
:10284000109246021092470280913F0290E0E2E52A
:10285000F2E020E030E0281739078CF6119211924F
:10286000119211922F5F3F4FF6CF009100010F3F61
:10287000D9F0802F90E08E159F05B1F03FEFE31A5D
:10288000F30A48E0A40EB11CA3968EAD9FADA397AA
:102890000496A3969FAF8EAFA39780913F0290E0DE
:1028A000E816F90614F349C10E94120B2B013C01F2
:1028B0000F3FA1F5A396EEADFFADA3978081918167
:1028C000A281B381A3019201281B390B4A0B5B0B38
:1028D000243631054105510588F2F701E85BFD4FCB
:1028E00000813EE0309F800111240B581C4FC8012D
:1028F0000E942A0CB501C8010E94FD0B41E064E46E
:10290000C8010E94BB0B4092440250924502609263
:10291000460270924702E0920001B0CF10E00E151F
:102920001F0509F0ABCF8091440290914502A09120
:102930004602B0914702A3019201281B390B4A0BB2
:102940005B0BDA01C901883E9340A105B10508F48B
:1029500095CFF701E85BFD4FC0804EE04C9DC00174
:102960001124DC01AB58BC4F6D01CD010E942A0C33
:10297000B701A3E0660F771FAA95E1F761517E4F7B
:10298000C6010E94FD0B40E06EEBC6010E94BB0B2E
:10299000A40168E070E021E030E0C601E3962FAFCB
:1029A000E397E4963FAFE497E7964FAFE797E89653
:1029B0005FAFE897E6966FAFE697E5967FAFE5974E
:1029C0000E94680BE3962FADE397E4963FADE49742
:1029D000E7964FADE797E8965FADE897E6966FAD5F
:1029E000E697E5967FADE5978111322B220F615076
:1029F000710999F6FA013193AF01E1962EAD3FAD21
:102A0000E197E217F30729F6D401E0E0E2963FAD43
:102A1000E2973A1739F08D91E827F0E0E854FE4F3D
:102A2000E491F4CFD40118968C91000F111F000F80
:102A3000111FE817C1F0F801EE5AFD4FD301C20192
:102A4000C297A109B10980839183A283B383F8015E
:102A5000EF5FFE4F20E030E046EC52E4208331830C
:102A6000428353835EC0D40114968C91807631F0FA
:102A7000803231F0803431F08CE005C089E003C051
:102A80008AE001C08BE0F40191816081EFE3F1E025
:102A9000D10120E101900D922A95E1F723E06C9697
:102AA0002FAF6C9722E06D962FAF6D97F1E06E9689
:102AB000FFAF6E976F961FAE6F97C82ED12C29E08F
:102AC000C21AD10870E0792BEBE5F0E0EC0FFD1FA6
:102AD000EC0DFD1D008002C0759567950A94E2F724
:102AE000072E000C880B990B0E94641DCC0CDD1C7A
:102AF000CC0CDD1CF101EC0DFD1D208131814281EA
:102B000053810E94C31DF801EF5FFE4F6083718304
:102B100082839383F801EE5AFD4F40825182628294
:102B200073828FEF8093000110924402109245024D
:102B30001092460210924702A1CE0E94120B009101
:102B40007A0210917B0220917C0230917D02DC019F
:102B5000CB01801B910BA20BB30B893E9340A105C7
:102B6000B105E8F40E949610182F90917203892FF6
:102B7000877F8093720396959170191709F4D2C2DA
:102B80000E94120B60936C0370936D0380936E032D
:102B900090936F039091720382E08927F2C20E94A2
:102BA000120B60937A0270937B0280937C02909365
:102BB0007D0271E0A72E71E0B72E00E010E0809159
:102BC0003F0290E0081719070CF0B7C0D501CD906F
:102BD000DD90ED90FD905D01A7019601C701B60162
:102BE0000E94911F882319F08FEA91E01AC02601F4
:102BF0003701E89477F82FEF3FEF4FE75FE7C30126
:102C0000B2010E94911F81110FC02FEF3FEF4FE7DC
:102C10005FE7C301B2010E945D1D18162CF483EB1F
:102C200091E00E94E70F82C02FEF3FEF4FE75FE494
:102C3000C701B6010E948C1F18161CF487EB91E0A7
:102C4000F0CF2FEF3FEF4FE75FECC701B6010E94D7
:102C50005D1D87FDF3CF20E030E0A901C701B6017B
:102C60000E945D1D87FF0FC0E091CF02F091D0025E
:102C70000190F081E02D6DE28FEC92E00995F7FA7A
:102C8000F094F7F8F0942AE037ED43EA5BE3C701EC
:102C9000B6010E94F11E2B013C010E945D1F6B01D9
:102CA0007C010E94621D9B01AC01C301B2010E9424
:102CB000F01E2B013C014AE0C701B6010E94F90F4A
:102CC000E091CF02F091D0020190F081E02D6EE210
:102CD0008FEC92E0099520E030E040E251E4C3013E
:102CE000B2010E94C31D6B017C010E945D1F2B017C
:102CF000612C712C4AE0C301B2010E94F90FC3019B
:102D0000B2010E94621D9B01AC01C701B6010E9485
:102D1000F01E20E030E040E251E40E94C31D0E941A
:102D20005D1F80E090E04AE00E94F90F8AEA91E09E
:102D30000E94E70F0F5F1F4F42CF8CEA91E00E9485
:102D4000E70F8091DC03811107C081E08093DC03F1
:102D500083EA93E00E94930C0091A5031091A603CF
:102D6000E091D403F091D50382E00995E091D4037A
:102D7000F091D50381E0099520E030E044E1B8010D
:102D800083EA93E00E948F0C26ED33E047E1B8011F
:102D900083EA93E00E948F0CE091D403F091D50375
:102DA00080E0099538EBC32E32E0D32E4BE5E42EBC
:102DB00047E0F42E58EC452E52E0552E6DEB662E72
:102DC00062E0762EBB24B3948091A7039091A80370
:102DD000885B924009F43FC0D092A803C092A70339
:102DE0008091BA03811107C0F30184918093BB03E2
:102DF000E4ECF2E010C0813039F4E7ECF2E08491C9
:102E00008093BB03F20107C0E5ECF2E0849180936C
:102E1000BB03E6ECF2E084918093BC038091BB039A
:102E2000082E000C990B2091BC03821B910927FDF1
:102E300093952091BD03203441F0829FC00111245D
:102E400026E0969587952A95E1F78093BE03F09248
:102E5000B903E092B8036D961FAE1EAE6D976F96E4
:102E60001FAE1EAE6F97A1961FAE1EAEA19742E099
:102E700050E06BEB71E0CE01855A9F4F0E94C7096D
:102E80008EE792E00E94860F840122E047E00E94D4
:102E9000D71AB401CE01855A9F4F0E9492096EEB5A
:102EA00071E0CE01855A9F4F0E94920986E892E018
:102EB0000E94860F22E047E00E94D71AB401CE019B
:102EC000855A9F4F0E949209B101CE01855A9F4FAA
:102ED0000E944810C1010E943A10B10189E00E948D
:102EE000B20F42E050E063EC71E0CE01855A9F4F93
:102EF0000E94C7098EE892E00E94860F22E047E018
:102F00000E94D71AB401CE01855A9F4F0E949209A0
:102F100066EC71E0CE01855A9F4F0E94920986E9C6
:102F200092E00E94860F22E047E00E94D71AB40187
:102F3000CE01855A9F4F0E949209B101CE01855A58
:102F40009F4F0E944810C1010E943A10B10187E1D1
:102F50000E94B20F42E050E06BEC71E0CE01855A66
:102F60009F4F0E94C7098EE992E00E94860F22E0DF
:102F700047E00E94D71AB401CE01855A9F4F0E94A4
:102F800092096EEC71E0CE01855A9F4F0E94920922
:102F900086EA92E00E94860F22E047E00E94D71A5C
:102FA000B401CE01855A9F4F0E949209B101CE0112
:102FB000855A9F4F0E944810C1010E943A10B101EA
:102FC00085E20E94B20F42E050E063ED71E0CE0175
:102FD000855A9F4F0E94C7098EEA92E00E94860F91
:102FE00022E047E00E94D71AB401CE01855A9F4FD4
:102FF0000E94920966ED71E0CE01855A9F4F0E94B2
:10300000920986EB92E00E94860F22E047E00E9440
:10301000D71AB401CE01855A9F4F0E949209B1017F
:10302000CE01855A9F4F0E944810C1010E943A105C
:10303000B10183E30E94B20F42E050E06BED71E01A
:10304000CE01855A9F4F0E94C7098EEB92E00E94E5
:10305000860F22E047E00E94D71AB401CE01855ABC
:103060009F4F0E9492096EED71E0CE01855A9F4FED
:103070000E94920986EC92E00E94860F22E047E0CF
:103080000E94D71AB401CE01855A9F4F0E9492091F
:10309000B101CE01855A9F4F0E944810C1010E9484
:1030A0003A10B10180E40E94B20FB092C3036D9652
:1030B0008EAD9FAD6D970E943120E091B103F091EC
:1030C000B203309719F083EA93E009950091A503C4
:1030D0001091A603E091D403F091D50382E0099505
:1030E000E091D403F091D50381E0099520E030E030
:1030F00045E1B80183EA93E00E948F0CA82E882353
:1031000041F026ED33E047E1B80183EA93E00E9405
:103110008F0CE091D403F091D50380E00995A110C4
:1031200053CE20CD0E94120BC0906C03D0906D0343
:10313000E0906E03F0906F03DC01CB018C199D09C8
:10314000AE09BF09409170035091710360E070E0D7
:1031500084179507A607B707B0F090917203917096
:10316000911789F00E94120B60936C0370936D03AA
:1031700080936E0390936F039091720381E089278F
:10318000886080937203809172038170282F30E0F1
:10319000AD963FAF2EAFAD9781119AC080912901B6
:1031A00090912A01019709F093C081E00E94691073
:1031B00018E080913F02282F30E0AF963FAF2EAF4E
:1031C000AF97612C712CAF964EAD5FADAF97641683
:1031D00075060CF065C08EE792E00E94640FAB9616
:1031E0009FAF8EAFAB978615970509F455C086E85B
:1031F00092E00E94640FA9969FAF8EAFA9978615A3
:10320000970509F449C08EE892E00E94640F5C01C2
:103210008615970509F440C086E992E00E94640F84
:10322000A7969FAF8EAFA79786159705A9F18EE950
:1032300092E00E94640FA5969FAF8EAFA59786156A
:10324000970551F186EA92E00E94640FA3969FAF22
:103250008EAFA39786159705F9F08EEA92E00E944B
:10326000640F6C0186159705B9F086EB92E00E9419
:10327000640F7C018615970579F08EEB92E00E9431
:10328000640F2C018615970539F086EC92E00E94B8
:10329000640F86159705A1F53FEF631A730A93CF64
:1032A0008EE7E82E82E0F82E00E010E0D7016D9165
:1032B0007D01C8010E94891E0F5F1F4F0035110557
:1032C000A9F760ED77E080E090E00E94D80A03C0A3
:1032D00080E00E946910AD962EAD3FADAD97309362
:1032E0002A01209329010E94DE0676CAA396AEAD7C
:1032F000BFADA3978C91882309F402C921E007C9C7
:10330000AB962EAD3FADAB9737FF0BC0F30103E09B
:10331000EE0FFF1F0A95E1F7E151FE4FAEE7B2E075
:1033200084C0A9964EAD5FADA99757FF0BC0F301BE
:10333000B3E0EE0FFF1FBA95E1F7E151FE4FA6E8AB
:10334000B2E073C0B7FE0BC0F301A3E0EE0FFF1FA6
:10335000AA95E1F7E151FE4FAEE8B2E066C0A7964C
:103360002EAD3FADA79737FF0BC0F30173E0EE0F13
:10337000FF1F7A95E1F7E151FE4FA6E9B2E055C093
:10338000A5964EAD5FADA59757FF0BC0F30163E067
:10339000EE0FFF1F6A95E1F7E151FE4FAEE9B2E093
:1033A00044C0A3962EAD3FADA39737FF0BC0F301EA
:1033B00053E0EE0FFF1F5A95E1F7E151FE4FA6EAE9
:1033C000B2E033C0D7FE0BC0F30143E0EE0FFF1FA6
:1033D0004A95E1F7E151FE4FAEEAB2E026C0F7FEB2
:1033E0000BC0F30133E0EE0FFF1F3A95E1F7E15117
:1033F000FE4FA6EBB2E019C057FE0BC0F30123E06D
:10340000EE0FFF1F2A95E1F7E151FE4FAEEBB2E060
:103410000CC097FFCECEF30193E0EE0FFF1F9A95FD
:10342000E1F7E151FE4FA6ECB2E0812F01900D9241
:103430008A95E1F7BECE1092D2021092D10288EEA8
:1034400093E0A0E0B0E08093D3029093D402A093E5
:10345000D502B093D60283E591E09093D002809399
:10346000CF0285EC90E09093DC028093DB0284EC49
:1034700090E09093DE028093DD0280EC90E09093E8
:10348000E0028093DF0281EC90E09093E20280936F
:10349000E10282EC90E09093E4028093E30286ECF8
:1034A00090E09093E6028093E5021092E802109279
:1034B000E9021092EA021092EB021092A20310921B
:1034C000A10385E691E09093A00380939F0310925F
:1034D000DA031092DB031092DC031092A80310921F
:1034E000A7031092AA031092A9031092AC0381E0E3
:1034F0008093AB0382E28093AD031092B2031092EB
:10350000B103E6ECF3E09FEF8EE08E0F91938E1304
:10351000FDCF81E08093C3032BE537E03093B903FF
:103520002093B8038093BA031092BB031092BC039C
:1035300080E48093BD031092BE038DE097E09093EA
:10354000D5038093D40383E391E09093A603809303
:10355000A5031092D10383EA93E00E94930C81E7C4
:1035600091E09093A00380939F0362E085E793E04E
:103570000E94600C63E083E893E00E94600C64E0CA
:1035800081E993E00E94600C10926C0310926D032D
:1035900010926E0310926F038AE090E09093710393
:1035A0008093700310927203109273030895EF9248
:1035B0000F931F93CF93DF93E80147FD02C034E0E0
:1035C00001C034E1E42F440FFF0BF7FF03C0F19576
:1035D000E195F109E32E022F2E2FAE010E94F71A7A
:1035E000CE01DF91CF911F910F91EF9008954F92EF
:1035F0005F926F927F929F92AF92BF92CF92DF9233
:10360000EF92FF920F931F93CF93DF93CDB7DEB767
:1036100029970FB6F894DEBF0FBECDBF6A01122FF7
:10362000B02E2BE3201720F0FF24F394F00E02C0FD
:10363000BCE3FB2E0F2D27E0AE014F5F5F4F0E94D2
:10364000851CAC018981982F9970913031F0E1FC93
:1036500006C0E0FE06C090E205C09DE203C09BE20A
:1036600001C090E0EE2DE07183FF3CC0911102C0DB
:1036700083E001C084E0811718F4212F281B01C0CA
:1036800020E0E1110BC0F601822F30E2882319F00F
:1036900031938150FBCFC20ED11C20E0992329F039
:1036A000D6019C93F60131966F01C6010396E2FEA6
:1036B0000AC03EE4D6013C9341E411964C93119725
:1036C00012963C9306C03EE6F601308341E6418304
:1036D0003283FC01322F40E2332309F442C041938C
:1036E0003150FACF82FF44C0911102C083E001C083
:1036F00084E0811718F4212F281B01C020E0E1117C
:103700000BC0F601822F30E2882319F031938150EB
:10371000FBCFC20ED11C20E0992329F0D6019C9347
:10372000F60131966F01C6010396E2FE0BC039E443
:10373000D6013C933EE411963C93119736E41296E1
:103740003C9307C039E6F60130833EE6318336E626
:103750003283FC01322F40E2332319F04193315080
:10376000FBCFFC01E20FF11D10828EEF9FEFB7C07F
:10377000F1E0911101C0F0E06F2F70E01416150612
:1037800024F49A012F5F3F4F02C021E030E0260F62
:10379000371FBB2029F06B2D70E06F5F7F4F02C099
:1037A00060E070E0260F371F612F70E026173707A3
:1037B0001CF4121B212F01C020E03E2D387159F45A
:1037C000D601322F60E2332319F06D933150FBCFD5
:1037D000C20ED11C20E0FF2331F0D6019C93B6012C
:1037E0006F5F7F4F6B01E1110BC0F601922F30E349
:1037F000992319F031939150FBCFC20ED11C20E0D8
:103800009F2D940F3A81782F7071A72E84FF03C0EB
:10381000313309F49150191624F4993018F098E0D6
:1038200001C091E0E42F852F57FF02C0E0E080E067
:103830006E2F782FE0E0F0E0AEE29A2E3A01691A9E
:1038400071082A01461A570A0B2D10E011950195AF
:1038500011096F3F8FEF780729F4D6019C92C601BA
:1038600001966C014617570784F0661677066CF4CC
:103870007F01E40CF51CA1E0B0E0AC0FBD1FEA0E27
:10388000FB1ED7011196BC9002C090E3B92E615087
:1038900071093196C60101967C016017710724F009
:1038A000D601BC926C01D5CF6417750741F436334D
:1038B00020F4353321F4A11002C081E3B82EF601C3
:1038C000B082F701822F90E2882319F09193815002
:1038D000FBCFF701E20FF11D108280E090E0299606
:1038E0000FB6F894DEBF0FBECDBFDF91CF911F9111
:1038F0000F91FF90EF90DF90CF90BF90AF909F908F
:103900007F906F905F904F900895283008F027E0E7
:103910003327DA01990F311D87FD9160009661050B
:10392000710539F432602E5F3D9330E32A95E1F75B
:1039300008959F3F30F080387105610509F03C5FC4
:103940003C5F3D93913008F08068911DDF93CF93E9
:103950001F930F93FF92EF92192F987F9695E92F5F
:1039600096959695E90FFF27EE53FF4F992733273A
:10397000EE24FF24A701E70105900894079428F49A
:10398000360FE71EF81E491F511D660F771F881F4F
:10399000991F0694A1F70590079428F4E70EF81EE6
:1039A000491F561FC11D770F881F991F661F069458
:1039B000A1F70590079428F4F80E491F561FC71F5A
:1039C000D11D880F991F661F771F0694A1F70590D8
:1039D000079420F4490F561FC71FD81F990F661F61
:1039E000771F881F0694A9F784911095177041F0EE
:1039F000D695C79557954795F794E7941A95C1F7CB
:103A0000E8E6F0E0689415901591359165919591EF
:103A100005907FE27395E118F10A430B560BC90B31
:103A2000D009C0F7E10CF11E431F561FC91FD01D5E
:103A30007EF4703311F48A95E6CFE894015030F0AB
:103A4000080F0AF40027021708F4202F2395022FED
:103A50007A3328F079E37D932A95E9F710C07D93B6
:103A60002A9589F606949795679537951795179433
:103A7000E118F10A430B560BC90BD00998F02395B6
:103A80007E9173957A3308F070E37C932013B8F736
:103A90007E9170617D9330F0839571E37D9370E347
:103AA0002A95E1F71124EF90FF900F911F91CF918C
:103AB000DF91992787FD909508950E949F1D08F436
:103AC00081E00895E89409C097FB3EF490958095B5
:103AD000709561957F4F8F4F9F4F9923A9F0F92FD4
:103AE00096E9BB279395F695879577956795B79552
:103AF000F111F8CFFAF4BB0F11F460FF1BC06F5F38
:103B00007F4F8F4F9F4F16C0882311F096E911C049
:103B1000772321F09EE8872F762F05C0662371F06A
:103B200096E8862F70E060E02AF09A95660F771F7E
:103B3000881FDAF7880F9695879597F90895990F5A
:103B40000008550FAA0BE0E8FEEF16161706E80767
:103B5000F907C0F012161306E407F50798F0621B88
:103B6000730B840B950B39F40A2661F0232B242B5D
:103B7000252B21F408950A2609F4A140A6958FEF7C
:103B8000811D811D08950E94D61D0C94471E0E9420
:103B9000391E38F00E94401E20F0952311F00C943D
:103BA000301E0C94361E11240C947B1E0E94581E4D
:103BB00070F3959FC1F3950F50E0551F629FF00180
:103BC000729FBB27F00DB11D639FAA27F00DB11D99
:103BD000AA1F649F6627B00DA11D661F829F222722
:103BE000B00DA11D621F739FB00DA11D621F839FA9
:103BF000A00D611D221F749F3327A00D611D231F7F
:103C0000849F600D211D822F762F6A2F11249F57CC
:103C100050409AF0F1F088234AF0EE0FFF1FBB1FCF
:103C2000661F771F881F91505040A9F79E3F51058E
:103C300080F00C94301E0C947B1E5F3FE4F3983EA2
:103C4000D4F3869577956795B795F795E7959F5F38
:103C5000C1F7FE2B880F911D9695879597F90895CA
:103C600097F99F6780E870E060E008959FEF80EC2F
:103C7000089500240A9416161706180609060895D2
:103C800000240A9412161306140605060895092E38
:103C90000394000C11F4882352F0BB0F40F4BF2BA7
:103CA00011F460FF04C06F5F7F4F8F4F9F4F0895E7
:103CB00057FD9058440F551F59F05F3F71F04795DD
:103CC000880F97FB991F61F09F3F79F087950895C2
:103CD000121613061406551FF2CF4695F1DF08C0E1
:103CE000161617061806991FF1CF869571056105FE
:103CF00008940895E894BB2766277727CB0197F9A6
:103D00000895F999FECF92BD81BDF89A992780B5A3
:103D10000895262FF999FECF1FBA92BD81BD20BD0F
:103D20000FB6F894FA9AF99A0FBE019608952F9259
:103D30003F924F925F926F927F928F929F92AF923B
:103D4000BF92CF92DF92EF92FF920F931F93CF9388
:103D5000DF93CDB7DEB7CA1BDB0B0FB6F894DEBF1F
:103D60000FBECDBF09942A88398848885F846E8445
:103D70007D848C849B84AA84B984C884DF80EE808F
:103D8000FD800C811B81AA81B981CE0FD11D0FB698
:103D9000F894DEBF0FBECDBFED010895A1E21A2E4B
:103DA000AA1BBB1BFD010DC0AA1FBB1FEE1FFF1FDF
:103DB000A217B307E407F50720F0A21BB30BE40B2F
:103DC000F50B661F771F881F991F1A9469F7609576
:103DD0007095809590959B01AC01BD01CF01089530
:103DE0005058BB27AA270E94081F0C94471E0E9408
:103DF000391E38F00E94401E20F039F49F3F19F41C
:103E000026F40C94361E0EF4E095E7FB0C94301E5D
:103E1000E92F0E94581E58F3BA17620773078407E8
:103E2000950720F079F4A6F50C947A1E0EF4E0952F
:103E30000B2EBA2FA02D0B01B90190010C01CA0164
:103E4000A0011124FF27591B99F0593F50F4503E0F
:103E500068F11A16F040A22F232F342F4427585F01
:103E6000F3CF469537952795A795F0405395C9F719
:103E70007EF41F16BA0B620B730B840BBAF09150D1
:103E8000A1F0FF0FBB1F661F771F881FC2F70EC070
:103E9000BA0F621F731F841F48F487957795679543
:103EA000B795F7959E3F08F0B0CF9395880F08F02F
:103EB0009927EE0F9795879508950E94601E88F0C8
:103EC0009F5798F0B92F9927B751B0F0E1F0660FDE
:103ED000771F881F991F1AF0BA95C9F714C0B1301F
:103EE00091F00E947A1EB1E008950C947A1E672F1B
:103EF000782F8827B85F39F0B93FCCF3869577954E
:103F00006795B395D9F73EF4909580957095619536
:103F10007F4F8F4F9F4F08950E949F1D08F48FEF92
:103F200008950E949F1D880B990B0895EE0FFF1FA7
:103F30000590F491E02D0994CF93DF9382309105A1
:103F400010F482E090E0E0915F04F091600420E0E2
:103F500030E0C0E0D0E0309711F140815181481746
:103F60005907C0F04817590761F48281938120975F
:103F700019F09B838A832BC09093600480935F0425
:103F800026C02115310519F04217530718F49A017C
:103F9000BE01DF01EF010280F381E02DDCCF2115AE
:103FA000310509F1281B390B2430310590F41296A4
:103FB0008D919C9113976115710521F0FB019383FD
:103FC000828304C09093600480935F04FD01329665
:103FD00044C0FD01E20FF31F8193919322503109F8
:103FE0002D933C933AC020915D0430915E04232BC5
:103FF00041F420913B0130913C0130935E042093C9
:104000005D042091390130913A012115310541F4C7
:104010002DB73EB740913D0150913E01241B350B19
:10402000E0915D04F0915E04E217F307A0F42E1B0B
:104030003F0B2817390778F0AC014E5F5F4F24170C
:10404000350748F04E0F5F1F50935E0440935D04A8
:104050008193919302C0E0E0F0E0CF01DF91CF9136
:1040600008950F931F93CF93DF93009709F48CC0AB
:10407000FC0132971382128200915F041091600458
:104080000115110581F420813181820F931F209148
:104090005D0430915E042817390779F5F0935E04CA
:1040A000E0935D0471C0D80140E050E0AE17BF0757
:1040B00050F412962D913C911397AD0121153105C5
:1040C00009F1D901F3CF9D01DA01338322836081A5
:1040D0007181860F971F8217930769F4EC0128817D
:1040E0003981260F371F2E5F3F4F318320838A810E
:1040F0009B8193838283452B29F4F0936004E093A2
:104100005F0442C01396FC93EE931297ED01499120
:1041100059919E01240F351FE217F30771F4808136
:104120009181840F951F029611969C938E938281A4
:10413000938113969C938E931297E0E0F0E0D80160
:1041400012968D919C911397009719F0F8018C01AC
:10415000F6CF8D919C9198012E5F3F4F820F931F58
:1041600020915D0430915E042817390769F4309777
:1041700029F41092600410925F0402C0138212822C
:1041800010935E0400935D04DF91CF911F910F9116
:104190000895A0E0B0E0EFECF0E20C949B1EEC017F
:1041A000009721F4CB010E949C1FB8C0FC01E60FD0
:1041B000F71F9C0122503109E217F30708F4ACC045
:1041C000D9010D911C91119706171707B0F0053012
:1041D000110508F49FC0C80104978617970708F4D3
:1041E00099C002501109061B170B019311936D938F
:1041F0007C93CF010E9431208DC05B01A01AB10ACF
:104200004C01800E911EA0915F04B091600440E0CB
:1042100050E0E12CF12C109709F44AC0A815B9051B
:10422000D1F56D907C901197630182E0C80ED11C8E
:10423000CA14DB0480F1A3014A195B096A0182E018
:10424000C80ED11C1296BC9012971396AC91B5E093
:10425000CB16D10440F0B282A38351834083D901AD
:104260006D937C930AC00E5F1F4FC301800F911F97
:10427000F90191838083EB2DFA2FE114F10431F0E1
:10428000D7011396FC93EE93129744C0F093600409
:10429000E0935F043FC08D919C9111974817590797
:1042A00008F4AC017D0112960D90BC91A02DB3CF06
:1042B00080915D0490915E0488159905E1F446179C
:1042C0005707C8F48091390190913A01009741F461
:1042D0008DB79EB740913D0150913E01841B950BD7
:1042E000E817F907C8F4F0935E04E0935D04F90160
:1042F000718360830FC0CB010E949C1F7C010097DB
:1043000059F0A801BE010E949821CE010E943120DF
:10431000C70104C0CE0102C080E090E0CDB7DEB797
:10432000EEE00C94B71E81E090E0F8940C94B72175
:10433000FB01DC0102C001900D9241505040D8F7C2
:104340000895FB01DC0101900D920020E1F7089532
:10435000FB01DC014150504048F001900D920020DB
:10436000C9F701C01D9241505040E0F70895F894FC
:02437000FFCF7D
:10437200FF0000AC420000AC420000AC420000ACC6
:10438200420000AC420000AC420000AC420000AC73
:10439200420000AC420000AC4201000840000000B4
:1043A20080DD0324082B010A0F0000610480000055
:1043B20000003F0000803E0000003E0000803D0003
:1043C2000000007506E2050D06BC063E061C06301E
:1043D20006000000005E0EE20566096509000000A5
:1043E200005E0EE20566096509454550524F4D20B3
:1043F200726573657400435243206973206E6F7453
:104402002076616C69642E20536B69702073656E2F
:10441200736F722E00466F756E6420000D0A006E77
:10442200616E00696E66006F766600413D00202075
:10443200423D00433D002020443D00453D002020F8
:10444200463D00473D002020483D00493D002020D8
:044452004A3D0000DF
:107E000085E08093810082E08093C00088E18093C8
:107E1000C10086E08093C20080E18093C40084B7F3
:107E200014BE81FFD0D089E2C8D0259A86E020E335
:107E30003CEF91E0309385002093840096BBB09B8B
:107E4000FECF1D9AA8958150A9F7DD24D394A5E013
:107E5000EA2EF1E1FF2EA4D0813421F481E0BED0DE
:107E600083E024C0823411F484E103C0853419F422
:107E700085E0B4D08AC08535A1F492D0082F10E0F7
:107E800010930102009300028BD090E0982F882776
:107E9000802B912B880F991F9093010280930002F1
:107EA00073C0863529F484E099D080E071D06DC02C
:107EB000843609F043C07CD0E0910002F0910102C9
:107EC00083E080935700E895C0E0D1E069D08993C2
:107ED000809102028150809302028823B9F778D002
:107EE00007B600FCFDCF4091000250910102A0E0D6
:107EF000B1E02C9130E011968C91119790E0982F81
:107F00008827822B932B1296FA010C01D0925700EE
:107F1000E89511244E5F5F4FF1E0A038BF0749F7A5
:107F2000E0910002F0910102E0925700E89507B657
:107F300000FCFDCFF0925700E89527C08437B9F4D4
:107F400037D046D0E0910002F09101023196F093D3
:107F50000102E09300023197E4918E2F19D08091B5
:107F60000202815080930202882361F70EC0853798
:107F700039F42ED08EE10CD085E90AD08FE096CF6F
:107F8000813511F488E019D023D080E101D063CF8E
:107F9000982F8091C00085FFFCCF9093C600089574
:107FA000A8958091C00087FFFCCF8091C6000895FE
:107FB000F7DFF6DF80930202F3CFE0E6F0E098E12E
:107FC00090838083089580E0F8DFEE27FF270994EF
:107FD000E7DF803209F0F7DF84E1DACF1F93182F53
:0C7FE000DFDF1150E9F7F4DF1F91089576
:0400000300007E007B
:00000001FF
